{
  "_format": "hh-sol-artifact-1",
  "contractName": "MintableToken",
  "sourceName": "contracts/mocks/MT.sol",
  "abi": [
    {
      "inputs": [],
      "stateMutability": "nonpayable",
      "type": "constructor"
    },
    {
      "anonymous": false,
      "inputs": [
        {
          "indexed": true,
          "internalType": "address",
          "name": "owner",
          "type": "address"
        },
        {
          "indexed": true,
          "internalType": "address",
          "name": "spender",
          "type": "address"
        },
        {
          "indexed": false,
          "internalType": "uint256",
          "name": "value",
          "type": "uint256"
        }
      ],
      "name": "Approval",
      "type": "event"
    },
    {
      "anonymous": false,
      "inputs": [
        {
          "indexed": true,
          "internalType": "address",
          "name": "previousOwner",
          "type": "address"
        },
        {
          "indexed": true,
          "internalType": "address",
          "name": "newOwner",
          "type": "address"
        }
      ],
      "name": "OwnershipTransferred",
      "type": "event"
    },
    {
      "anonymous": false,
      "inputs": [
        {
          "indexed": true,
          "internalType": "address",
          "name": "from",
          "type": "address"
        },
        {
          "indexed": true,
          "internalType": "address",
          "name": "to",
          "type": "address"
        },
        {
          "indexed": false,
          "internalType": "uint256",
          "name": "value",
          "type": "uint256"
        }
      ],
      "name": "Transfer",
      "type": "event"
    },
    {
      "inputs": [
        {
          "internalType": "address",
          "name": "account_",
          "type": "address"
        },
        {
          "internalType": "uint256",
          "name": "amount_",
          "type": "uint256"
        }
      ],
      "name": "_burnFrom",
      "outputs": [],
      "stateMutability": "nonpayable",
      "type": "function"
    },
    {
      "inputs": [
        {
          "internalType": "address",
          "name": "owner",
          "type": "address"
        },
        {
          "internalType": "address",
          "name": "spender",
          "type": "address"
        }
      ],
      "name": "allowance",
      "outputs": [
        {
          "internalType": "uint256",
          "name": "",
          "type": "uint256"
        }
      ],
      "stateMutability": "view",
      "type": "function"
    },
    {
      "inputs": [
        {
          "internalType": "address",
          "name": "spender",
          "type": "address"
        },
        {
          "internalType": "uint256",
          "name": "amount",
          "type": "uint256"
        }
      ],
      "name": "approve",
      "outputs": [
        {
          "internalType": "bool",
          "name": "",
          "type": "bool"
        }
      ],
      "stateMutability": "nonpayable",
      "type": "function"
    },
    {
      "inputs": [
        {
          "internalType": "address",
          "name": "account",
          "type": "address"
        }
      ],
      "name": "balanceOf",
      "outputs": [
        {
          "internalType": "uint256",
          "name": "",
          "type": "uint256"
        }
      ],
      "stateMutability": "view",
      "type": "function"
    },
    {
      "inputs": [
        {
          "internalType": "uint256",
          "name": "amount",
          "type": "uint256"
        }
      ],
      "name": "burn",
      "outputs": [],
      "stateMutability": "nonpayable",
      "type": "function"
    },
    {
      "inputs": [
        {
          "internalType": "address",
          "name": "account_",
          "type": "address"
        },
        {
          "internalType": "uint256",
          "name": "amount_",
          "type": "uint256"
        }
      ],
      "name": "burnFrom",
      "outputs": [],
      "stateMutability": "nonpayable",
      "type": "function"
    },
    {
      "inputs": [],
      "name": "decimals",
      "outputs": [
        {
          "internalType": "uint8",
          "name": "",
          "type": "uint8"
        }
      ],
      "stateMutability": "view",
      "type": "function"
    },
    {
      "inputs": [
        {
          "internalType": "address",
          "name": "spender",
          "type": "address"
        },
        {
          "internalType": "uint256",
          "name": "subtractedValue",
          "type": "uint256"
        }
      ],
      "name": "decreaseAllowance",
      "outputs": [
        {
          "internalType": "bool",
          "name": "",
          "type": "bool"
        }
      ],
      "stateMutability": "nonpayable",
      "type": "function"
    },
    {
      "inputs": [
        {
          "internalType": "address",
          "name": "spender",
          "type": "address"
        },
        {
          "internalType": "uint256",
          "name": "addedValue",
          "type": "uint256"
        }
      ],
      "name": "increaseAllowance",
      "outputs": [
        {
          "internalType": "bool",
          "name": "",
          "type": "bool"
        }
      ],
      "stateMutability": "nonpayable",
      "type": "function"
    },
    {
      "inputs": [
        {
          "internalType": "address",
          "name": "account_",
          "type": "address"
        },
        {
          "internalType": "uint256",
          "name": "amount_",
          "type": "uint256"
        }
      ],
      "name": "mint",
      "outputs": [],
      "stateMutability": "nonpayable",
      "type": "function"
    },
    {
      "inputs": [],
      "name": "name",
      "outputs": [
        {
          "internalType": "string",
          "name": "",
          "type": "string"
        }
      ],
      "stateMutability": "view",
      "type": "function"
    },
    {
      "inputs": [],
      "name": "owner",
      "outputs": [
        {
          "internalType": "address",
          "name": "",
          "type": "address"
        }
      ],
      "stateMutability": "view",
      "type": "function"
    },
    {
      "inputs": [],
      "name": "renounceOwnership",
      "outputs": [],
      "stateMutability": "nonpayable",
      "type": "function"
    },
    {
      "inputs": [
        {
          "internalType": "address",
          "name": "vault_",
          "type": "address"
        }
      ],
      "name": "setVault",
      "outputs": [
        {
          "internalType": "bool",
          "name": "",
          "type": "bool"
        }
      ],
      "stateMutability": "nonpayable",
      "type": "function"
    },
    {
      "inputs": [],
      "name": "symbol",
      "outputs": [
        {
          "internalType": "string",
          "name": "",
          "type": "string"
        }
      ],
      "stateMutability": "view",
      "type": "function"
    },
    {
      "inputs": [],
      "name": "totalSupply",
      "outputs": [
        {
          "internalType": "uint256",
          "name": "",
          "type": "uint256"
        }
      ],
      "stateMutability": "view",
      "type": "function"
    },
    {
      "inputs": [
        {
          "internalType": "address",
          "name": "recipient",
          "type": "address"
        },
        {
          "internalType": "uint256",
          "name": "amount",
          "type": "uint256"
        }
      ],
      "name": "transfer",
      "outputs": [
        {
          "internalType": "bool",
          "name": "",
          "type": "bool"
        }
      ],
      "stateMutability": "nonpayable",
      "type": "function"
    },
    {
      "inputs": [
        {
          "internalType": "address",
          "name": "sender",
          "type": "address"
        },
        {
          "internalType": "address",
          "name": "recipient",
          "type": "address"
        },
        {
          "internalType": "uint256",
          "name": "amount",
          "type": "uint256"
        }
      ],
      "name": "transferFrom",
      "outputs": [
        {
          "internalType": "bool",
          "name": "",
          "type": "bool"
        }
      ],
      "stateMutability": "nonpayable",
      "type": "function"
    },
    {
      "inputs": [
        {
          "internalType": "address",
          "name": "newOwner_",
          "type": "address"
        }
      ],
      "name": "transferOwnership",
      "outputs": [],
      "stateMutability": "nonpayable",
      "type": "function"
    },
    {
      "inputs": [],
      "name": "vault",
      "outputs": [
        {
          "internalType": "address",
          "name": "",
          "type": "address"
        }
      ],
      "stateMutability": "view",
      "type": "function"
    }
  ],
  "bytecode": "0x60806040523480156200001157600080fd5b50604080518082018252600e81526d4d696e7461626c6520546f6b6e6560901b602080830191825283518085019094526002845261135560f21b908401528151919291600991620000669160039190620000e9565b5081516200007c906004906020850190620000e9565b506005805460ff191660ff9290921691909117610100600160a81b03191661010033810291909117918290556040516001600160a01b0391909204169250600091507f8be0079c531659141344cd1fd0a4f28419497f9722a3daafe3b4186f6b6457e0908290a3620001cc565b828054620000f7906200018f565b90600052602060002090601f0160209004810192826200011b576000855562000166565b82601f106200013657805160ff191683800117855562000166565b8280016001018555821562000166579182015b828111156200016657825182559160200191906001019062000149565b506200017492915062000178565b5090565b5b8082111562000174576000815560010162000179565b600281046001821680620001a457607f821691505b60208210811415620001c657634e487b7160e01b600052602260045260246000fd5b50919050565b610fc680620001dc6000396000f3fe608060405234801561001057600080fd5b506004361061012c5760003560e01c8063715018a6116100ad578063a457c2d711610071578063a457c2d714610288578063a9059cbb1461029b578063dd62ed3e146102ae578063f2fde38b146102e7578063fbfa77cf146102fa5761012c565b8063715018a61461022357806379cc67901461022b5780638da5cb5b1461023e57806395d89b411461026d578063a22b35ce146102755761012c565b806339509351116100f457806339509351146101ac57806340c10f19146101bf57806342966c68146101d45780636817031b146101e757806370a08231146101fa5761012c565b806306fdde0314610131578063095ea7b31461014f57806318160ddd1461017257806323b872dd14610184578063313ce56714610197575b600080fd5b61013961030b565b6040516101469190610dcf565b60405180910390f35b61016261015d366004610d8e565b61039d565b6040519015158152602001610146565b6002545b604051908152602001610146565b610162610192366004610d53565b6103b3565b60055460405160ff9091168152602001610146565b6101626101ba366004610d8e565b61041c565b6101d26101cd366004610d8e565b610452565b005b6101d26101e2366004610db7565b6104cb565b6101626101f5366004610d07565b6104d8565b610176610208366004610d07565b6001600160a01b031660009081526020819052604090205490565b6101d261052e565b6101d2610239366004610d8e565b6105ad565b61025560055461010090046001600160a01b031690565b6040516001600160a01b039091168152602001610146565b6101396105b7565b6101d2610283366004610d8e565b6105c6565b610162610296366004610d8e565b61062c565b6101626102a9366004610d8e565b61067b565b6101766102bc366004610d21565b6001600160a01b03918216600090815260016020908152604080832093909416825291909152205490565b6101d26102f5366004610d07565b610688565b6006546001600160a01b0316610255565b60606003805461031a90610e86565b80601f016020809104026020016040519081016040528092919081815260200182805461034690610e86565b80156103935780601f1061036857610100808354040283529160200191610393565b820191906000526020600020905b81548152906001019060200180831161037657829003601f168201915b5050505050905090565b60006103aa338484610783565b50600192915050565b60006103c08484846108a8565b610412843361040d85604051806060016040528060288152602001610f20602891396001600160a01b038a1660009081526001602090815260408083203384529091529020549190610a2b565b610783565b5060019392505050565b3360008181526001602090815260408083206001600160a01b038716845290915281205490916103aa91859061040d9086610a65565b6006546001600160a01b031633146104bd5760405162461bcd60e51b815260206004820152602360248201527f5661756c744f776e65643a2063616c6c6572206973206e6f74207468652056616044820152621d5b1d60ea1b60648201526084015b60405180910390fd5b6104c78282610acb565b5050565b6104d53382610baa565b50565b60055460009061010090046001600160a01b0316331461050a5760405162461bcd60e51b81526004016104b490610e22565b50600680546001600160a01b0319166001600160a01b03831617905560015b919050565b60055461010090046001600160a01b0316331461055d5760405162461bcd60e51b81526004016104b490610e22565b60055460405160009161010090046001600160a01b0316907f8be0079c531659141344cd1fd0a4f28419497f9722a3daafe3b4186f6b6457e0908390a360058054610100600160a81b0319169055565b6104c782826105c6565b60606004805461031a90610e86565b600061061082604051806060016040528060248152602001610f48602491396001600160a01b03861660009081526001602090815260408083203384529091529020549190610a2b565b905061061d833383610783565b6106278383610baa565b505050565b60006103aa338461040d85604051806060016040528060258152602001610f6c602591393360009081526001602090815260408083206001600160a01b038d1684529091529020549190610a2b565b60006103aa3384846108a8565b60055461010090046001600160a01b031633146106b75760405162461bcd60e51b81526004016104b490610e22565b6001600160a01b03811661071c5760405162461bcd60e51b815260206004820152602660248201527f4f776e61626c653a206e6577206f776e657220697320746865207a65726f206160448201526564647265737360d01b60648201526084016104b4565b6005546040516001600160a01b0380841692610100900416907f8be0079c531659141344cd1fd0a4f28419497f9722a3daafe3b4186f6b6457e090600090a3600580546001600160a01b0390921661010002610100600160a81b0319909216919091179055565b6001600160a01b0383166107e55760405162461bcd60e51b8152602060048201526024808201527f45524332303a20617070726f76652066726f6d20746865207a65726f206164646044820152637265737360e01b60648201526084016104b4565b6001600160a01b0382166108465760405162461bcd60e51b815260206004820152602260248201527f45524332303a20617070726f766520746f20746865207a65726f206164647265604482015261737360f01b60648201526084016104b4565b6001600160a01b0383811660008181526001602090815260408083209487168084529482529182902085905590518481527f8c5be1e5ebec7d5bd14f71427d1e84f3dd0314c0f7b2291e5b200ac8c7c3b92591015b60405180910390a3505050565b6001600160a01b03831661090c5760405162461bcd60e51b815260206004820152602560248201527f45524332303a207472616e736665722066726f6d20746865207a65726f206164604482015264647265737360d81b60648201526084016104b4565b6001600160a01b03821661096e5760405162461bcd60e51b815260206004820152602360248201527f45524332303a207472616e7366657220746f20746865207a65726f206164647260448201526265737360e81b60648201526084016104b4565b6109ab81604051806060016040528060268152602001610efa602691396001600160a01b0386166000908152602081905260409020549190610a2b565b6001600160a01b0380851660009081526020819052604080822093909355908416815220546109da9082610a65565b6001600160a01b038381166000818152602081815260409182902094909455518481529092918616917fddf252ad1be2c89b69c2b068fc378daa952ba7f163c4a11628f55a4df523b3ef910161089b565b60008184841115610a4f5760405162461bcd60e51b81526004016104b49190610dcf565b506000610a5c8486610e6f565b95945050505050565b600080610a728385610e57565b905083811015610ac45760405162461bcd60e51b815260206004820152601b60248201527f536166654d6174683a206164646974696f6e206f766572666c6f77000000000060448201526064016104b4565b9392505050565b6001600160a01b038216610b215760405162461bcd60e51b815260206004820152601f60248201527f45524332303a206d696e7420746f20746865207a65726f20616464726573730060448201526064016104b4565b600254610b2e9082610a65565b6002556001600160a01b038216600090815260208190526040902054610b549082610a65565b6001600160a01b038316600081815260208181526040918290209390935551838152909130917fddf252ad1be2c89b69c2b068fc378daa952ba7f163c4a11628f55a4df523b3ef91015b60405180910390a35050565b6001600160a01b038216610c0a5760405162461bcd60e51b815260206004820152602160248201527f45524332303a206275726e2066726f6d20746865207a65726f206164647265736044820152607360f81b60648201526084016104b4565b610c4781604051806060016040528060228152602001610ed8602291396001600160a01b0385166000908152602081905260409020549190610a2b565b6001600160a01b038316600090815260208190526040902055600254610c6d9082610cae565b6002556040518181526000906001600160a01b038416907fddf252ad1be2c89b69c2b068fc378daa952ba7f163c4a11628f55a4df523b3ef90602001610b9e565b6000610ac483836040518060400160405280601e81526020017f536166654d6174683a207375627472616374696f6e206f766572666c6f770000815250610a2b565b80356001600160a01b038116811461052957600080fd5b600060208284031215610d18578081fd5b610ac482610cf0565b60008060408385031215610d33578081fd5b610d3c83610cf0565b9150610d4a60208401610cf0565b90509250929050565b600080600060608486031215610d67578081fd5b610d7084610cf0565b9250610d7e60208501610cf0565b9150604084013590509250925092565b60008060408385031215610da0578182fd5b610da983610cf0565b946020939093013593505050565b600060208284031215610dc8578081fd5b5035919050565b6000602080835283518082850152825b81811015610dfb57858101830151858201604001528201610ddf565b81811115610e0c5783604083870101525b50601f01601f1916929092016040019392505050565b6020808252818101527f4f776e61626c653a2063616c6c6572206973206e6f7420746865206f776e6572604082015260600190565b60008219821115610e6a57610e6a610ec1565b500190565b600082821015610e8157610e81610ec1565b500390565b600281046001821680610e9a57607f821691505b60208210811415610ebb57634e487b7160e01b600052602260045260246000fd5b50919050565b634e487b7160e01b600052601160045260246000fdfe45524332303a206275726e20616d6f756e7420657863656564732062616c616e636545524332303a207472616e7366657220616d6f756e7420657863656564732062616c616e636545524332303a207472616e7366657220616d6f756e74206578636565647320616c6c6f77616e636545524332303a206275726e20616d6f756e74206578636565647320616c6c6f77616e636545524332303a2064656372656173656420616c6c6f77616e63652062656c6f77207a65726fa2646970667358221220f7085383418907bf5ad119945a9e7190a43fa5fee6359535a280c84a4856b29c64736f6c63430008020033",
  "linkReferences": {},
  "deployedLinkReferences": {}
}