{
  "_format": "hh-sol-artifact-1",
  "contractName": "MintContract",
  "sourceName": "contracts/MintContract.sol",
  "abi": [
    {
      "inputs": [
        {
          "internalType": "address",
          "name": "_mintableToken",
          "type": "address"
        },
        {
          "internalType": "address",
          "name": "_buyToken",
          "type": "address"
        }
      ],
      "stateMutability": "nonpayable",
      "type": "constructor"
    },
    {
      "anonymous": false,
      "inputs": [
        {
          "indexed": true,
          "internalType": "address",
          "name": "previousOwner",
          "type": "address"
        },
        {
          "indexed": true,
          "internalType": "address",
          "name": "newOwner",
          "type": "address"
        }
      ],
      "name": "OwnershipTransferred",
      "type": "event"
    },
    {
      "anonymous": false,
      "inputs": [
        {
          "indexed": false,
          "internalType": "uint256",
          "name": "amount",
          "type": "uint256"
        }
      ],
      "name": "WithdrawalERC20",
      "type": "event"
    },
    {
      "inputs": [],
      "name": "buyToken",
      "outputs": [
        {
          "internalType": "address",
          "name": "",
          "type": "address"
        }
      ],
      "stateMutability": "view",
      "type": "function"
    },
    {
      "inputs": [
        {
          "internalType": "uint256",
          "name": "_amount",
          "type": "uint256"
        }
      ],
      "name": "mint",
      "outputs": [],
      "stateMutability": "nonpayable",
      "type": "function"
    },
    {
      "inputs": [],
      "name": "mintRate",
      "outputs": [
        {
          "internalType": "uint256",
          "name": "",
          "type": "uint256"
        }
      ],
      "stateMutability": "view",
      "type": "function"
    },
    {
      "inputs": [],
      "name": "mintableToken",
      "outputs": [
        {
          "internalType": "address",
          "name": "",
          "type": "address"
        }
      ],
      "stateMutability": "view",
      "type": "function"
    },
    {
      "inputs": [],
      "name": "owner",
      "outputs": [
        {
          "internalType": "address",
          "name": "",
          "type": "address"
        }
      ],
      "stateMutability": "view",
      "type": "function"
    },
    {
      "inputs": [
        {
          "internalType": "bool",
          "name": "_state",
          "type": "bool"
        }
      ],
      "name": "pause",
      "outputs": [],
      "stateMutability": "nonpayable",
      "type": "function"
    },
    {
      "inputs": [],
      "name": "paused",
      "outputs": [
        {
          "internalType": "bool",
          "name": "",
          "type": "bool"
        }
      ],
      "stateMutability": "view",
      "type": "function"
    },
    {
      "inputs": [],
      "name": "renounceOwnership",
      "outputs": [],
      "stateMutability": "nonpayable",
      "type": "function"
    },
    {
      "inputs": [
        {
          "internalType": "uint256",
          "name": "_newRate",
          "type": "uint256"
        }
      ],
      "name": "setRate",
      "outputs": [],
      "stateMutability": "nonpayable",
      "type": "function"
    },
    {
      "inputs": [
        {
          "internalType": "address",
          "name": "newOwner",
          "type": "address"
        }
      ],
      "name": "transferOwnership",
      "outputs": [],
      "stateMutability": "nonpayable",
      "type": "function"
    },
    {
      "inputs": [
        {
          "internalType": "uint256",
          "name": "_amount",
          "type": "uint256"
        }
      ],
      "name": "valueOf",
      "outputs": [
        {
          "internalType": "uint256",
          "name": "value_",
          "type": "uint256"
        }
      ],
      "stateMutability": "view",
      "type": "function"
    },
    {
      "inputs": [],
      "name": "withdrawECR20",
      "outputs": [],
      "stateMutability": "nonpayable",
      "type": "function"
    }
  ],
  "bytecode": "0x60806040526127106003556004805460ff1916905534801561002057600080fd5b50604051610c43380380610c4383398101604081905261003f9161010b565b6100483361009f565b6001600160a01b03821661005b57600080fd5b6001600160a01b03811661006e57600080fd5b600180546001600160a01b039384166001600160a01b0319918216179091556002805492909316911617905561013d565b600080546001600160a01b038381166001600160a01b0319831681178455604051919092169283917f8be0079c531659141344cd1fd0a4f28419497f9722a3daafe3b4186f6b6457e09190a35050565b80516001600160a01b038116811461010657600080fd5b919050565b6000806040838503121561011d578182fd5b610126836100ef565b9150610134602084016100ef565b90509250929050565b610af78061014c6000396000f3fe608060405234801561001057600080fd5b50600436106100b45760003560e01c806395d38ea81161007157806395d38ea814610138578063a0712d681461014b578063a48217191461015e578063ca0dcf1614610171578063cadf338f14610188578063f2fde38b1461019b576100b4565b806302329a29146100b957806334fcf437146100ce5780635c975abb146100e1578063715018a614610103578063881021161461010b5780638da5cb5b14610113575b600080fd5b6100cc6100c7366004610836565b6101ae565b005b6100cc6100dc36600461086e565b6101f4565b6004546100ee9060ff1681565b60405190151581526020015b60405180910390f35b6100cc610223565b6100cc610259565b6000546001600160a01b03165b6040516001600160a01b0390911681526020016100fa565b600154610120906001600160a01b031681565b6100cc61015936600461086e565b6103bb565b600254610120906001600160a01b031681565b61017a60035481565b6040519081526020016100fa565b61017a61019636600461086e565b6104d7565b6100cc6101a936600461080f565b610628565b6000546001600160a01b031633146101e15760405162461bcd60e51b81526004016101d890610912565b60405180910390fd5b6004805460ff1916911515919091179055565b6000546001600160a01b0316331461021e5760405162461bcd60e51b81526004016101d890610912565b600355565b6000546001600160a01b0316331461024d5760405162461bcd60e51b81526004016101d890610912565b61025760006106c3565b565b6000546001600160a01b031633146102835760405162461bcd60e51b81526004016101d890610912565b6001546040516370a0823160e01b81523060048201526000916001600160a01b0316906370a082319060240160206040518083038186803b1580156102c757600080fd5b505afa1580156102db573d6000803e3d6000fd5b505050506040513d601f19601f820116820180604052508101906102ff9190610886565b60015460405163a9059cbb60e01b8152336004820152602481018390529192506001600160a01b03169063a9059cbb90604401602060405180830381600087803b15801561034c57600080fd5b505af1158015610360573d6000803e3d6000fd5b505050506040513d601f19601f820116820180604052508101906103849190610852565b506040518181527fd02c7ed4794bdd2ce69094f9fa0e02b85cf5c29710acbb5456e198af74de434b9060200160405180910390a150565b60045460ff16156103cb57600080fd5b600081116103d857600080fd5b6002546040516323b872dd60e01b8152336004820152306024820152604481018390526001600160a01b03909116906323b872dd90606401602060405180830381600087803b15801561042a57600080fd5b505af115801561043e573d6000803e3d6000fd5b505050506040513d601f19601f820116820180604052508101906104629190610852565b50600061046e826104d7565b6001546040516340c10f1960e01b8152336004820152602481018390529192506001600160a01b0316906340c10f1990604401600060405180830381600087803b1580156104bb57600080fd5b505af11580156104cf573d6000803e3d6000fd5b505050505050565b600080610604600260009054906101000a90046001600160a01b03166001600160a01b031663313ce5676040518163ffffffff1660e01b815260040160206040518083038186803b15801561052b57600080fd5b505afa15801561053f573d6000803e3d6000fd5b505050506040513d601f19601f82011682018060405250810190610563919061089e565b61056e90600a6109ad565b6001546040805163313ce56760e01b815290516105fe926001600160a01b03169163313ce567916004808301926020929190829003018186803b1580156105b457600080fd5b505afa1580156105c8573d6000803e3d6000fd5b505050506040513d601f19601f820116820180604052508101906105ec919061089e565b6105f790600a6109ad565b8690610713565b9061079b565b90506106216127106105fe6003548461071390919063ffffffff16565b9392505050565b6000546001600160a01b031633146106525760405162461bcd60e51b81526004016101d890610912565b6001600160a01b0381166106b75760405162461bcd60e51b815260206004820152602660248201527f4f776e61626c653a206e6577206f776e657220697320746865207a65726f206160448201526564647265737360d01b60648201526084016101d8565b6106c0816106c3565b50565b600080546001600160a01b038381166001600160a01b0319831681178455604051919092169283917f8be0079c531659141344cd1fd0a4f28419497f9722a3daafe3b4186f6b6457e09190a35050565b60008261072257506000610795565b600061072e8385610a7e565b90508261073b8583610947565b146107925760405162461bcd60e51b815260206004820152602160248201527f536166654d6174683a206d756c7469706c69636174696f6e206f766572666c6f6044820152607760f81b60648201526084016101d8565b90505b92915050565b600061079283836040518060400160405280601a81526020017f536166654d6174683a206469766973696f6e206279207a65726f000000000000815250600081836107f95760405162461bcd60e51b81526004016101d891906108bf565b5060006108068486610947565b95945050505050565b600060208284031215610820578081fd5b81356001600160a01b0381168114610792578182fd5b600060208284031215610847578081fd5b813561079281610ab3565b600060208284031215610863578081fd5b815161079281610ab3565b60006020828403121561087f578081fd5b5035919050565b600060208284031215610897578081fd5b5051919050565b6000602082840312156108af578081fd5b815160ff81168114610792578182fd5b6000602080835283518082850152825b818110156108eb578581018301518582016040015282016108cf565b818111156108fc5783604083870101525b50601f01601f1916929092016040019392505050565b6020808252818101527f4f776e61626c653a2063616c6c6572206973206e6f7420746865206f776e6572604082015260600190565b60008261096257634e487b7160e01b81526012600452602481fd5b500490565b80825b600180861161097957506109a4565b81870482111561098b5761098b610a9d565b8086161561099857918102915b9490941c93800261096a565b94509492505050565b600061079260001960ff8516846000826109c957506001610621565b816109d657506000610621565b81600181146109ec57600281146109f657610a23565b6001915050610621565b60ff841115610a0757610a07610a9d565b6001841b915084821115610a1d57610a1d610a9d565b50610621565b5060208310610133831016604e8410600b8410161715610a56575081810a83811115610a5157610a51610a9d565b610621565b610a638484846001610967565b808604821115610a7557610a75610a9d565b02949350505050565b6000816000190483118215151615610a9857610a98610a9d565b500290565b634e487b7160e01b600052601160045260246000fd5b80151581146106c057600080fdfea26469706673582212209bfa7c063c905038214e3fe1da86f2debbfc0569280e3c6b1a51c8625f38027c64736f6c63430008020033",
  "linkReferences": {},
  "deployedLinkReferences": {}
}